:020000040000FA
:040000009BEF0CF076
:10060000003F065B4F666D7D077F6F777C395E79B3
:10061000713C2D28312920282A2920202832292DF3
:100620003E004573636F6C68612061206D7573696E
:100630006361002D2831292020282A2920202832F2
:0F064000292B00506C61796572004D503300001A
:1006500072EC0FF0010EE1EC0CF0000E096E000ED2
:1006600071EC0EF07550130D020EF324096E010E9D
:10067000F4200A6E5CEC0DF0000E096E010E71ECB8
:100680000EF0330E096E060E0A6E5CEC0DF075501E
:10069000130D000EF324D96E010EF420DA6EDF5034
:1006A000736E640E09EC0EF080EF04F0000E046E21
:1006B0003C0E036E73C001F0026A39EC0BF001C00E
:1006C00009F002C00AF0000E0C6E0A0E0B6E9BECD5
:1006D0000BF00950726E000E046E3C0E036E73C078
:1006E00001F0026A39EC0BF001C011F002C012F007
:1006F00011C001F012C002F0000E046E0A0E036E6B
:1007000039EC0BF00150716E000E0C6E3C0E0B6E4E
:1007100073C009F00A6A9BEC0BF009C013F00AC021
:1007200014F013C009F014C00AF0000E0C6E0A0E8B
:100730000B6E9BEC0BF00950706E000E0C6E3C0EB5
:100740000B6E73C009F00A6A9BEC0BF009C001F054
:100750000AC002F0000E046E0A0E036E39EC0BF0B4
:1007600001506F6E000E016E71509EEC0EF0010E86
:10077000016E72509EEC0EF0020E016E6F509EECF8
:100780000EF0030E016E70509EEC0EF0000E156E12
:10079000CCEC08F0000E026E0A0E016E3FEC0EF07B
:1007A0000DEC08F090EC0FF001507F6E7FA6DBEFB0
:1007B00003F0DDEF03F0F3EF03F0E7EF03F0CCEC31
:1007C00008F00DEC08F090EC0FF001507F6E7FB652
:1007D000ECEF03F0EEEF03F0DFEF03F0000E14ECAC
:1007E0000AF066EF04F07FAEF8EF03F0FAEF03F0E3
:1007F00010EF04F004EF04F0CCEC08F00DEC08F07E
:1008000090EC0FF001507F6E7FBE09EF04F00BEF0C
:1008100004F0FCEF03F0010E14EC0AF066EF04F0B4
:100820007FA015EF04F017EF04F038EF04F021EF8C
:1008300004F0CCEC08F00DEC08F090EC0FF0015057
:100840007F6E7FB026EF04F028EF04F019EF04F07C
:100850007E50D8A42EEF04F030EF04F034EF04F013
:10086000010E7E6E66EF04F0000E7E6E66EF04F001
:100870007FA83DEF04F03FEF04F066EF04F049EF8E
:1008800004F0CCEC08F00DEC08F090EC0FF0015007
:100890007F6E7FB84EEF04F050EF04F041EF04F0AC
:1008A000000E016E000E9EEC0EF0010E016E000EA9
:1008B0009EEC0EF0020E016E000E9EEC0EF0030E8A
:1008C000016E000E9EEC0EF095EF04F0152A630EFB
:1008D00015646DEF04F06FEF04F0C8EF03F07E5085
:1008E000D8A475EF04F077EF04F07DEF04F0730601
:1008F000640E09EC0EF080EF04F0000E09EC0EF02F
:100900007350D8A486EF04F088EF04F056EF03F09C
:10091000000E926E000E09EC0EF09482010E026E33
:10092000F40E016E3FEC0EF09492120020EEDEF019
:1009300010EE62F0070EDBCFE3FFE806FCE220EEEC
:10094000D4F010EE58F0090EDBCFE3FFE806FCE22E
:1009500020EEC4F010EE48F00F0EDBCFE3FFE80608
:10096000FCE248EC0CF020EC0DF0CAEC0EF08BEC45
:100970000FF00DEC08F00F0EE1EC0CF020EE80F023
:1009800010EE18F02F0EDBCFE3FFE806FCE2010EBD
:10099000E1EC0CF0030E096E000E71EC0EF0000E8F
:1009A0006A6E620E6A24D96EDA6A000EDA22DF50AD
:1009B000F5EC0EF06A2A070E6A64E1EF04F0E3EF4B
:1009C00004F0D1EF04F0030E096E010E71EC0EF08D
:1009D000000E6B6E580E6B24D96EDA6A000EDA22A6
:1009E000DF50F5EC0EF06B2A090E6B64FAEF04F0A1
:1009F000FCEF04F0EAEF04F0040E096E020E71EC55
:100A00000EF0000E6C6E480E6C24D96EDA6A000E81
:100A1000DA22DF50F5EC0EF06C2A0F0E6C6413EF47
:100A200005F015EF05F003EF05F0000E096E000E5E
:100A300071EC0EF0000EF5EC0EF0010EF5EC0EF080
:100A4000020EF5EC0EF0000E096E010E71EC0EF0C8
:100A5000030EF5EC0EF0040EF5EC0EF0050EF5ECC1
:100A60000EF0400EE1EC0CF0000E6D6E180E6D24D1
:100A7000D96EDA6A000EDA22DF50F5EC0EF06D2A3C
:100A80002F0E6D6446EF05F048EF05F036EF05F0E8
:100A90000F0E026EA00E016E3FEC0EF0010EE1ECA7
:100AA0000CF0060E096E000E71EC0EF04A0E096E87
:100AB000060E0A6E5CEC0DF0040E096E010E71EC70
:100AC0000EF0430E096E060E0A6E5CEC0DF0000E81
:100AD000096E000E71EC0EF0000EF5EC0EF0010E3A
:100AE000F5EC0EF0020EF5EC0EF0000E096E010EA4
:100AF00071EC0EF0030EF5EC0EF0040EF5EC0EF0BA
:100B0000050EF5EC0EF0400EE1EC0CF0000E6E6EF2
:100B1000180E6E24D96EDA6A000EDA22DF50F5EC78
:100B20000EF06E2A2F0E6E6498EF05F09AEF05F026
:100B300088EF05F0130E026E880E016E3FEC0EF08A
:100B4000010EE1EC0CF0000E096E000E71EC0EF0DF
:100B5000220E096E060E0A6E5CEC0DF0000E096E98
:100B6000010E71EC0EF0110E096E060E0A6E5CECB1
:100B70000DF074EC09F0AEEF05F000EF00F002BEEE
:100B8000CDEF05F0025007E1080E015CD8B0CBEFC5
:100B900005F0CDEF05F0F7EF05F003500410D8B4E1
:100BA000D4EF05F0D6EF05F0E6EF05F001C005F053
:100BB000010E066E052ADFEF05F0D8900636052EE9
:100BC000DDEF05F006509212E5EF06F001C005F0EA
:100BD000010E066E052AEFEF05F0D8900636052EB9
:100BE000EDEF05F00650FF0A9216E5EF06F002BEA3
:100BF00005EF06F0025007E1100E015CD8B003EFDC
:100C000006F005EF06F033EF06F003500410D8B4F9
:100C10000CEF06F00EEF06F020EF06F001C005F035
:100C2000F80E0526010E066E052A19EF06F0D8907B
:100C30000636052E17EF06F006509312E5EF06F084
:100C400001C005F0F80E0526010E066E052A2BEFF1
:100C500006F0D8900636052E29EF06F00650FF0A5A
:100C60009316E5EF06F002BE41EF06F0025007E1F1
:100C7000180E015CD8B03FEF06F041EF06F06FEFC1
:100C800006F003500410D8B448EF06F04AEF06F01F
:100C90005CEF06F001C005F0F00E0526010E066EB1
:100CA000052A55EF06F0D8900636052E53EF06F0CC
:100CB00006509412E5EF06F001C005F0F00E05268F
:100CC000010E066E052A67EF06F0D8900636052E4F
:100CD00065EF06F00650FF0A9416E5EF06F002BE37
:100CE0007DEF06F0025007E1200E015CD8B07BEFEB
:100CF00006F07DEF06F0ABEF06F003500410D8B419
:100D000084EF06F086EF06F098EF06F001C005F0DC
:100D1000E80E0526010E066E052A91EF06F0D89022
:100D20000636052E8FEF06F006509512E5EF06F019
:100D300001C005F0E80E0526010E066E052AA3EF98
:100D400006F0D8900636052EA1EF06F00650FF0AF1
:100D50009516E5EF06F002BEB9EF06F0025007E186
:100D6000280E015CD8B0B7EF06F0B9EF06F0E5EF5A
:100D700006F003500410D8B4C0EF06F0C2EF06F03E
:100D8000D4EF06F001C005F0E00E0526010E066E58
:100D9000052ACDEF06F0D8900636052ECBEF06F0EB
:100DA00006509612E5EF06F001C005F0E00E0526AC
:100DB000010E066E052ADFEF06F0D8900636052EE6
:100DC000DDEF06F00650FF0A9616120002BEF4EFA1
:100DD00006F0025007E1080E015CD8B0F2EF06F011
:100DE000F4EF06F01EEF07F003500410D8B4FBEF49
:100DF00006F0FDEF06F00DEF07F001C005F0010E63
:100E0000066E052A06EF07F0D8900636052E04EF89
:100E100007F0065080120CEF08F001C005F0010E3B
:100E2000066E052A16EF07F0D8900636052E14EF49
:100E300007F00650FF0A80160CEF08F002BE2CEFF8
:100E400007F0025007E1100E015CD8B02AEF07F05E
:100E50002CEF07F05AEF07F0F80E0126FF0E0222E2
:100E600003500410D8B437EF07F039EF07F049EF1B
:100E700007F001C005F0010E066E052A42EF07F0EB
:100E8000D8900636052E40EF07F0065081120CEF81
:100E900008F001C005F0010E066E052A52EF07F0BA
:100EA000D8900636052E50EF07F00650FF0A81163F
:100EB0000CEF08F002BE68EF07F0025007E1180ED1
:100EC000015CD8B066EF07F068EF07F096EF07F027
:100ED000F00E0126FF0E022203500410D8B473EF67
:100EE00007F075EF07F085EF07F001C005F0010E80
:100EF000066E052A7EEF07F0D8900636052E7CEFA9
:100F000007F0065082120CEF08F001C005F0010E48
:100F1000066E052A8EEF07F0D8900636052E8CEF68
:100F200007F00650FF0A82160CEF08F002BEA4EF8D
:100F300007F0025007E1200E015CD8B0A2EF07F0E5
:100F4000A4EF07F0D2EF07F0E80E0126FF0E022211
:100F500003500410D8B4AFEF07F0B1EF07F0C1EFC2
:100F600007F001C005F0010E066E052ABAEF07F082
:100F7000D8900636052EB8EF07F0065083120CEF16
:100F800008F001C005F0010E066E052ACAEF07F051
:100F9000D8900636052EC8EF07F00650FF0A8316D4
:100FA0000CEF08F002BEE0EF07F0025007E1280E58
:100FB000015CD8B0DEEF07F0E0EF07F00CEF08F0CF
:100FC000E00E0126FF0E022203500410D8B4EBEF0E
:100FD00007F0EDEF07F0FDEF07F001C005F0010E9F
:100FE000066E052AF6EF07F0D8900636052EF4EFC8
:100FF00007F0065084120CEF08F001C005F0010E56
:10100000066E052A06EF08F0D8900636052E04EF86
:1010100008F00650FF0A8416120083CF06F00F0E68
:101020009512000E0A6EF80E93160AC001F0010E1A
:10103000026E012A1EEF08F0D8900236012E1CEF36
:1010400008F002509312070E81120AC001F0010E3F
:10105000026E012A2EEF08F0D8900236012E2CEFF6
:1010600008F00250FF0A8116000E086E000E076E8F
:10107000074A082A08BE46EF08F0085009E10A0EA0
:10108000075CD8A046EF08F048EF08F038EF08F00A
:10109000000E096E09C001F0010E026E012A53EF25
:1010A00008F0D8900236012E51EF08F00250831458
:1010B0000009D8A45EEF08F060EF08F079EF08F0BF
:1010C0000A50040DF3500924016E010E026E000E49
:1010D000036E012A6FEF08F0D89002360336012E16
:1010E0006CEF08F002500001F0130350F11394EF7D
:1010F00008F00A50040DF3500924016E010E026E2F
:10110000000E036E012A88EF08F0D89002360336ED
:10111000012E85EF08F0021C046E031C056E0450BE
:101120000001F0170550F117092A030E09649BEF1F
:1011300008F09DEF08F04AEF08F00A2A020E0A6450
:10114000A4EF08F0A6EF08F013EF08F0F051EE1945
:1011500007E1F151EF19D8A4B0EF08F0B2EF08F0B1
:10116000B5EF08F07B06BBEF08F00A0E7B6EF0C00F
:10117000EEF0F1C0EFF07B50D8A4C1EF08F0C3EF60
:1011800008F0C7EF08F0EEC0F2F0EFC0F3F006C0D1
:1011900083FF000E956E1200000E956E000E026E1B
:1011A000020E016E000E046E000E036EE6EC06F0F9
:1011B000000E026E030E016E000E046E000E036E32
:1011C000E6EC06F0000E026E040E016E000E046ED8
:1011D000000E036EE6EC06F0000E026E050E016EC8
:1011E000000E046E000E036EE6EC06F0000E836E39
:1011F00056EF09F0010E7924F66EF76A060EF72213
:101200000800F5CF83FF000E026E020E016E000E85
:10121000046E010E036EE6EC06F0010E7A6E73EFBB
:1012200009F0010E7824F66EF76A060EF722080020
:10123000F5CF83FF000E026E030E016E000E046EEA
:10124000010E036EE6EC06F0020E7A6E73EF09F003
:10125000010E7724F66EF76A060EF7220800F5CF26
:1012600083FF000E026E040E016E000E046E010E6E
:10127000036EE6EC06F0030E7A6E73EF09F0010ED2
:101280007624F66EF76A060EF7220800F5CF83FF84
:10129000000E026E050E016E000E046E010E036E4E
:1012A000E6EC06F0000E7A6E73EF09F07A50076EE6
:1012B000086A0850000AD8B460EF09F052EF09F04C
:1012C0000750000AD8B4FAEF08F0010AD8B411EFB9
:1012D00009F0030AD8B428EF09F0010AD8B43FEFA7
:1012E00009F052EF09F012000DEC08F090EC0FF04D
:1012F00001507F6ECCEC08F07FB681EF09F083EFF0
:1013000009F08AEF09F07FAE88EF09F08AEF09F063
:1013100013EF0AF0010E746ECCEC08F00DEC08F03F
:10132000000E026E0A0E016E3FEC0EF07F50166E3C
:10133000176A90EC0FF01650011807E117500218C9
:10134000D8A4A5EF09F0A7EF09F0AFEF09F07404F6
:10135000D8A4ADEF09F0AFEF09F08CEF09F090ECF5
:101360000FF001507F6E7FA6B8EF09F0BAEF09F0D9
:10137000C9EF09F07550D8A4C0EF09F0C2EF09F029
:10138000C6EF09F0090E756EEBEF09F07506EBEF8D
:1013900009F07FAECEEF09F0D0EF09F0E0EF09F0F1
:1013A000090E7518D8A4D7EF09F0D9EF09F0DDEFD1
:1013B00009F0000E756EEBEF09F0752AEBEF09F0FE
:1013C0007FA0E5EF09F0E7EF09F0EBEF09F0000E81
:1013D000746E11EF0AF0010EE1EC0CF0000E096ED4
:1013E000010E71EC0EF0110E096E060E0A6E5CEC29
:1013F0000DF0000E096E000E71EC0EF07550130D1D
:10140000020EF324096E010EF4200A6E5CEC0DF05E
:10141000030E016E75509EEC0EF0000E746E8CEF94
:1014200009F028EC03F01200076E0704D8A41BEFA4
:101430000AF01DEF0AF029EF0AF0080E7D18D8B463
:1014400024EF0AF026EF0AF032EF0AF07D2A32EF9D
:101450000AF07D50D8B42FEF0AF031EF0AF032EFE6
:101460000AF07D0695CF08F0000E806E000E956E96
:101470007D50D8A43EEF0AF040EF0AF044EF0AF0A6
:10148000000E836EAAEF0AF07D04D8A44AEF0AF09A
:101490004CEF0AF050EF0AF0800E836EAAEF0AF0CC
:1014A000020E7D18D8A457EF0AF059EF0AF05DEF4D
:1014B0000AF0C00E836EAAEF0AF0030E7D18D8A4BE
:1014C00064EF0AF066EF0AF06AEF0AF0E00E836E4E
:1014D000AAEF0AF0040E7D18D8A471EF0AF073EF9A
:1014E0000AF077EF0AF0F00E836EAAEF0AF0050E0D
:1014F0007D18D8A47EEF0AF080EF0AF084EF0AF09E
:10150000F80E836EAAEF0AF0060E7D18D8A48BEFB2
:101510000AF08DEF0AF091EF0AF0FC0E836EAAEF4D
:101520000AF0070E7D18D8A498EF0AF09AEF0AF097
:101530009EEF0AF0FE0E836EAAEF0AF0080E7D18E9
:10154000D8A4A5EF0AF0A7EF0AF0AAEF0AF0836883
:10155000AAEF0AF0010E026EF40E016E3FEC0EF0DF
:1015600008C095FF1200000E0A6E08BEBCEF0AF01C
:10157000BAEF0AF0C6EF0AF0081E071E061E056C39
:10158000000E062207220822010E0A6E04BECDEFCD
:101590000AF0CBEF0AF0D7EF0AF0041E031E021E7A
:1015A000016C000E022203220422010E0A1A000E10
:1015B0000B6E000E0C6E000E0D6E000E0E6E0550C2
:1015C000061007100810D8B4E8EF0AF0EAEF0AF0A6
:1015D00020EF0BF0010E096EF4EF0AF0D8900536FB
:1015E000063607360836092A08AEF9EF0AF0FBEF8F
:1015F0000AF0EEEF0AF0D8900B360C360D360E36A8
:101600000550015C06500258075003580850045812
:10161000D8A00DEF0BF00FEF0BF018EF0BF005500B
:10162000015E0650025A0750035A0850045A0B80B4
:10163000D8900832073206320532092EFBEF0AF045
:101640000A50D8B426EF0BF028EF0BF030EF0BF078
:101650000E1E0D1E0C1E0B6C000E0C220D220E22F7
:101660000BC001F00CC002F00DC003F00EC004F07E
:101670001200000E066E04BE42EF0BF040EF0BF0BE
:1016800048EF0BF0036C041ED8B0042A010E066E5E
:1016900002BE4FEF0BF04DEF0BF055EF0BF0016C6E
:1016A000021ED8B0022A010E061A000E086E000EA5
:1016B000076E03500410D8B460EF0BF062EF0BF02C
:1016C0008AEF0BF0010E056E6AEF0BF0D89003362F
:1016D0000436052A04AE6FEF0BF071EF0BF066EFE6
:1016E0000BF0D890073608360350015C04500258BE
:1016F000D8A07DEF0BF07FEF0BF084EF0BF00350E1
:10170000015E0450025A0780D89004320332052E3D
:1017100071EF0BF00650D8B490EF0BF092EF0BF096
:1017200096EF0BF0076C081ED8B0082A07C001F02E
:1017300008C002F01200000E0E6E0ABEA4EF0BF0FD
:10174000A2EF0BF0AAEF0BF0096C0A1ED8B00A2A20
:10175000010E0E6E0CBEB1EF0BF0AFEF0BF0B5EF5C
:101760000BF00B6C0C1ED8B00C2A0B500C10D8B41C
:10177000BCEF0BF0BEEF0BF0E2EF0BF0010E0D6EC5
:10178000C6EF0BF0D8900B360C360D2A0CAECBEF13
:101790000BF0CDEF0BF0C2EF0BF00B50095C0C50CF
:1017A0000A58D8A0D6EF0BF0D8EF0BF0DCEF0BF017
:1017B0000B50095E0C500A5AD8900C320B320D2E89
:1017C000CDEF0BF00E50D8B4E8EF0BF0EAEF0BF0D2
:1017D000EEEF0BF0096C0A1ED8B00A2A09C009F016
:1017E0000AC00AF01200506172616E6F69640000F5
:1017F00000000000000000486967687761792053A5
:101800007461720000000000426F726E20546F20FD
:1018100042652057696C64000042616420546F2067
:1018200054686520426F6E650000446F776E2054E7
:10183000686520526F616400000000576F6E646538
:101840007277616C6C00000000000000426C7565EE
:10185000204D6F6E646179000000000000426163FA
:101860006B20496E20426C61636B0000000048658C
:1018700079204A7564650000000000000000004BFC
:101880006173686D697200000000000000000000D4
:10189000000E946E000E106E000E0F6ED8900F3476
:1018A000D96E1034DA6EB00ED926000EDA220FC0CF
:1018B00001F010C002F0000E046E130E036E3EEC39
:1018C0000FF0000E0124E16E010E0220E26EDECF69
:1018D000E6FFDDCFE5FF0FC001F010C002F0000E03
:1018E000046E130E036E3EEC0FF0020E0124076E21
:1018F000010E0220086E0FC001F010C002F0000EB1
:10190000046E110E036E3EEC0FF0000E0124096E02
:10191000020E02200A6E1FEC0FF00F4A102A105020
:1019200009E10A0E0F5CD8A098EF0CF09AEF0CF0CA
:101930004EEF0CF01200E60EF66E170EF76E000E6C
:10194000F86E02EE00F010EEAAF00900F5CFEEFFFF
:10195000E550E150FAE1A40EF66E1B0EF76E000E94
:10196000F86E00EE80F010EE6EF00900F5CFEEFF9D
:10197000E550E150FAE12A0EF66E1F0EF76E000EEA
:10198000F86E0900F5CF7DF00900F5CF7EF0090073
:10199000F5CF7FF001EE00F0BE0EEE6AE806FDE145
:1019A00000EEEEF0070EEE6AE806FDE100EE6FF0E5
:1019B0000E0EEE6AE806FDE1000EF86E000196EFED
:1019C00004F0086E83CF07F0000E956E000E026ED5
:1019D000220E016E000E046E000E036EE6EC06F0A1
:1019E00008C083FF000E026E210E016E000E046E11
:1019F000010E036EE6EC06F0000E026E210E016E83
:101A0000000E046E000E036EE6EC06F007C083FFC6
:101A1000020E0818D8B40FEF0DF011EF0DF019EF0A
:101A20000DF00804D8A417EF0DF019EF0DF01DEF1D
:101A30000DF064EC0FF01FEF0DF07FEC0FF01200D3
:101A4000000E026E220E016E000E046E000E036E7A
:101A5000BFEC05F0000E026E210E016E000E046E4A
:101A6000000E036EBFEC05F0000E956E64EC0FF0F7
:101A700064EC0FF064EC0FF064EC0FF064EC0FF02A
:101A8000380EE1EC0CF064EC0FF064EC0FF0380E63
:101A9000E1EC0CF064EC0FF0380EE1EC0CF0380ED9
:101AA000E1EC0CF0060EE1EC0CF00C0EE1EC0CF0AD
:101AB000010EE1EC0CF01200000E0D6E79EF0DF04E
:101AC0000D5009240B6E000E0A200C6E0BC0F6FFA1
:101AD0000CC0F7FFF86A050EF76403D00800F55054
:101AE00005D0F6CFE9FFF7CFEAFFEF50F5EC0EF0A7
:101AF0000D2A0D5009240B6E000E0A200C6E0BC02F
:101B0000F6FF0CC0F7FFF86A050EF76403D0080073
:101B1000F55005D0F6CFE9FFF7CFEAFFEF50000907
:101B2000D8A495EF0DF097EF0DF060EF0DF01200D7
:101B3000000E066E000E056E03500410D8B4A3EF1D
:101B40000DF0A5EF0DF0CDEF0DF0010E076EADEF2E
:101B50000DF0D89003360436072A04AEB2EF0DF02C
:101B6000B4EF0DF0A9EF0DF0D8900536063603500E
:101B7000015C04500258D8A0C0EF0DF0C2EF0DF088
:101B8000C7EF0DF00350015E0450025A0580D89053
:101B900004320332072EB4EF0DF005C001F006C089
:101BA00002F012000103030E1C180808111F0001A7
:101BB0001F12141F1018180E0703020208181C0E1B
:101BC0000303010012141F08001F11000203070E77
:101BD0001818100046000F0078003C000A0028008A
:101BE00014001E008C000A0020202020202032300B
:101BF00031383030343238324A6F616F205065648A
:101C0000726F2020554E494645490A0704010008D5
:101C100005020A6E010ECB24016E026A000E02223A
:101C20000AC003F0046A3EEC0FF001C00BF002C0E2
:101C30000CF00BC001F00CC002F0000E046E190E87
:101C4000036E98EC0DF001C00BF002C00CF0FF0E1B
:101C50000B16030E0C160BC008F00CC009F0D89040
:101C600009320832D890093208320850BE6E0BC0D3
:101C700008F0030E08160838F00BBD121200000E13
:101C8000046E000E036E65EF0EF0000E056E280E5A
:101C900005644DEF0EF04FEF0EF051EF0EF063EFD5
:101CA0000EF0000E066E020E066459EF0EF05BEFAA
:101CB0000EF05DEF0EF060EF0EF0062A53EF0EF01F
:101CC000052A47EF0EF0034A042A0150035C025034
:101CD0000458D8A06EEF0EF070EF0EF045EF0EF046
:101CE00012000A6E000E0B6E0A50D8A47AEF0EF0A6
:101CF0007CEF0EF07FEF0EF00950800F0B6E0A04A0
:101D0000D8A485EF0EF087EF0EF092EF0EF00B04E3
:101D1000D8B48DEF0EF08FEF0EF092EF0EF0095069
:101D2000C00F0B6E0F0E096498EF0EF09AEF0EF0D5
:101D30009AEF0EF00B50E1EC0CF01200026E015025
:101D4000D8A4A5EF0EF0A7EF0EF0A9EF0EF002C099
:101D500079F00104D8A4AFEF0EF0B1EF0EF0B3EFBD
:101D60000EF002C078F0020E0118D8A4BAEF0EF0FF
:101D7000BCEF0EF0BEEF0EF002C077F0030E0118BC
:101D8000D8A4C5EF0EF0C7EF0EF0C9EF0EF002C0F9
:101D900076F01200000E026E020E016E000E046E4E
:101DA000000E036EBFEC05F0000E026E030E016E16
:101DB000000E046E000E036EBFEC05F0000E026E06
:101DC000040E016E000E046E000E036EBFEC05F0F3
:101DD000000E026E050E016E000E046E000E036E04
:101DE000BFEC05F0000E956E1200076E83CF08F071
:101DF000000E956E000E026E220E016E000E046E35
:101E0000010E036EE6EC06F007C083FF000E026EC3
:101E1000210E016E000E046E010E036EE6EC06F05C
:101E2000000E026E210E016E000E046E000E036E97
:101E3000E6EC06F008C083FF7FEC0FF0120009C04B
:101E40000BF00AC00CF007C00DF008C00EF00BC07C
:101E5000D9FF0CC0DAFF0B4A0C2A0DC0E1FF0EC0FF
:101E6000E2FF0D4A0E2ADFCFE7FFE750D8A43BEF91
:101E70000FF03DEF0FF027EF0FF0120001500302BB
:101E8000F3CF05F0F4CF06F001500402F35006261C
:101E900002500302F350062605C001F006C002F00E
:101EA0001200480E016EE80E026E010E036E000E67
:101EB000046E0FC005F010C006F0076A086AB3ECA4
:101EC0000AF00104CB6E1200000E026E7FEC0FF0E0
:101ED000022A310E02646FEF0FF071EF0FF066EF20
:101EE0000FF012009494030ECA12CA840C0EBD6E39
:101EF000000E106E640E0F6E51EC0FF01200000E0B
:101F0000016E012A180E016488EF0FF08AEF0FF0BE
:101F100081EF0FF01200070E93160F0E95121200AC
:0D1F2000F2C001F0F3C002F0120003011046
:020000040020DA
:08000000FFFFFFFFFFFFFFFF00
:020000040030CA
:0E000000FF027100FF8380FF0FC00FE00F4072
:00000001FF
